:100000000C94C7000C94F0000C94F0000C94F000D9
:100010000C94F0000C94F0000C94080B0C94F0007D
:100020000C94F0000C94F0000C94F0000C94DA1096
:100030000C94F0000C94F0000C9439100C94F00027
:100040000C94F0000C94F0000C94F0000C94F00070
:100050000C94F0000C94F0000C94F0000C94FC1044
:100060000C94F0000C94F000890B6D0B410B380BD5
:100070003E0BE70BDC0B5C123C113C115912651274
:1000800055126C12681270122812FA116E616E000D
:10009000696E660000407A10F35A00A0724E18098B
:1000A0000010A5D4E80000E87648170000E40B54DF
:1000B000020000CA9A3B000000E1F50500008096AE
:1000C0009800000040420F000000A08601000000E0
:1000D000102700000000E80300000000640000009A
:1000E00000000A00000000000100000000002C7663
:1000F000D888DC674F0823DFC1DFAE59E1B1B7967E
:10010000E5E3E453C63AE651997696E8E6C28426DA
:10011000EB898C9B62ED407C6FFCEFBC9C9F40F2B6
:10012000BAA56FA5F490055A2AF75C936B6CF96732
:100130006DC11BFCE0E40D47FEF520E6B500D0EDF7
:10014000902E0300943577050080841E080000205F
:100150004E0A000000C80C333333330F986E1283FD
:100160001141EF8D2114893BE65516CFFEE6DB18D1
:10017000D1844B381BF77C1D901DA4BBE424203296
:1001800084725E228100C9F124ECA1E53D2711248F
:100190001FBECFEFD8E0DEBFCDBF14BE0FB6F894C0
:1001A000A895809160008861809360001092600043
:1001B0000FBE11E0A0E0B1E0EAE5F9E302C005906E
:1001C0000D92AE30B107D9F721E0AEE0B1E001C049
:1001D0001D92AC3DB207E1F70E94BC170C94AB1C1A
:1001E0000C940000809100019091010121E0FC013C
:1001F000218B03960895CF93DF93C0910001D09196
:10020000010181E0898B1B82CE0103960E940313BA
:100210009E878D87DF91CF910895CF93DF930E94C2
:10022000E00C0E94470DC0910001D09101010E9495
:100230002F0D8883C0910001D09101011F86888114
:1002400089838A83188A198A1B8A1A8A24E130E0F2
:100250003D8B2C8B1E8A1F8A188E198EFE01EE593B
:10026000FF4F95E09083329792E090833A96108208
:100270003197108232961082359710823196108213
:10028000319680831B82CE0103960E9403139E87C2
:100290008D87E0910001F091010181E0818BDF9178
:1002A000CF9108950F931F93CF93DF93EC01CB0170
:1002B0000E94670D9985992329F0DF91CF911F91B5
:1002C0000F9108959981492FE0910001F09101016A
:1002D0002081921709F4AFC0992309F47DC08B35B2
:1002E00008F0A5C03089332309F401C1528D951758
:1002F00009F401C1323008F4D9C051A1951709F4AD
:10030000FFC0323009F4D6C050A5951709F4FDC0DE
:10031000333009F4CFC057A5951709F405C134301F
:1003200009F4C8C056A9951709F4F9C0353009F485
:10033000C1C055AD951709F40BC1363009F4BAC0E8
:10034000DF01AC5BBF4F5C91951709F4FCC03730FF
:1003500009F4B0C017965C91951709F4EFC03830D6
:1003600009F4A8C017965C91951709F4E2C03930DA
:1003700009F4A0C017963C91931709F4CBC04AE04A
:1003800050E08A01000F111F000F111F000F111FF5
:10039000D801A41BB50BAE0FBF1F5A969C935A975A
:1003A0009A815B969C935B979B815C969C935C97F0
:1003B0009C815D969C935D975E968C935E978C81F5
:1003C000882309F457C090968C9190978F5F9096F0
:1003D0008C9390975F961C9288818230B9F084301C
:1003E00009F06BCF8F81281740F18217A0F12813F5
:1003F00064CFDF01A959BF4F81E08C9313961C9203
:1004000011961C92E759FF4F808357CF49814217BD
:1004100009F453CF8B812817B9F18A812817D9F1B4
:1004200087858130F1F1E659FF4F108246CF8881F0
:100430008230A9F6EFCF8881D2CFDF01A859BF4F14
:100440002C932F8312961C92119681E08C93E7597E
:10045000FF4F108232CFDF01A859BF4F8C93119705
:100460001C92139681E08C9311961C92E759FF4FD2
:10047000108223CF5F968C915F978F5F5F968C93EE
:100480005F9790961C92A8CF418381E087878A81ED
:10049000281307C04981428381E0878780898130A2
:1004A000F9F0E659FF4F81E0808307CF41E03A3011
:1004B00008F066CF91E0930F432F50E0908B8A01B4
:1004C000000F111F000F111F000F111FB801641B37
:1004D000750B6E0F7F1FDB015F961C92998158CFC1
:1004E0008A812813DECF898181838283DACF40E03D
:1004F00050E091E0E3CF40E050E000E010E048CF72
:1005000041E050E008E010E043CF42E050E000E17D
:1005100010E03ECF49E050E008E410E039CF44E07D
:1005200050E000E210E034CF43E050E008E110E09A
:100530002FCF48E050E000E410E02ACF47E050E041
:1005400008E310E025CF46E050E000E310E020CFC4
:1005500045E050E008E210E01BCF0C94810C0895B8
:1005600091E08B3508F090E0892F0895E09100012B
:10057000F09101019089992309F4DAC0858D8111E8
:1005800072C0878D833008F075C020E0923008F487
:1005900065C084A18111C3C086A1833008F0C6C0A4
:1005A000923009F45BC083A58111B0C085A583306A
:1005B00008F0B3C0933009F451C082A981119DC0E5
:1005C00084A9833008F0A0C0943009F447C081ADFD
:1005D00081118AC083AD833008F08DC0953009F455
:1005E0003DC0DF01A05CBF4F8C91811171C012969C
:1005F0008C91833008F076C0963081F1DF01A95BE1
:10060000BF4F8C91811158C012968C91833008F0A5
:100610005DC0973019F1DF01A25BBF4F8C91811152
:1006200037C012968C918330D8F59830B9F0DF013D
:10063000AB5ABF4F8C91811135C012968C9183308B
:10064000C8F5993059F0DF01A45ABF4F8C91811140
:1006500013C0E25AFF4F80818330A8F481E09217E3
:10066000B1F080E00895813009F08FCF80A1833010
:1006700008F48BCF21E08ACF813081F7E15AFF4F18
:100680008081833058F32F5F81E09213EACF089581
:10069000813059F6DF01AF5ABF4F8C91833028F279
:1006A0002F5FC3CF813069F6DF01A85ABF4F8C910D
:1006B000833038F22F5FC5CF813009F0AACFDF0138
:1006C000A65BBF4F8C91833008F4A3CF2F5FA1CFDF
:1006D000813009F091CFDF01AD5BBF4F8C9183304A
:1006E00008F48ACF2F5F88CF813009F077CF84ADAF
:1006F000833008F473CF2F5F71CF813009F064CF5E
:1007000085A9833008F460CF2F5F5ECF813009F078
:1007100051CF86A5833008F44DCF2F5F4BCF81306A
:1007200009F03ECF87A1833008F43ACF2F5F38CF4E
:1007300081E00895E0910001F091010190899923F1
:10074000C9F1228D8217B1F19230B0F121A1821747
:1007500099F1923099F120A5821781F1933081F1BE
:1007600027A5821769F1943069F126A9821751F102
:10077000953051F125AD821739F1963039F1DF010D
:10078000AC5BBF4F2C91821709F1973009F1179696
:100790002C918217E9F09830E9F017962C91821786
:1007A000C9F09930C9F0E75AFF4F90818917A1F03D
:1007B0008AE0089580E0089581E0089582E0089538
:1007C00083E0089584E0089585E0089586E0089523
:1007D00087E0089588E0089589E00895E091000198
:1007E000F091010180898823C1F1958D9130B9F193
:1007F000823098F194A1913091F1823071F193A5FA
:10080000913069F1833049F192A9913041F18430FE
:1008100021F191AD913019F18530F9F0DF01A05C43
:10082000BF4F9C919130D9F08630B9F017969C91CA
:100830009130A9F0873089F017969C91913079F02A
:10084000883059F017969C91913049F0893029F001
:10085000E45AFF4F8081813011F081E0089580E0FB
:1008600008958F929F92AF92BF92CF92DF92EF92B4
:10087000FF920F931F93CF93DF93E0910001F091CC
:10088000010180898823E9F1958D913009F448C0F0
:10089000823098F194A1913009F442C0823069F11C
:1008A00093A59130E9F1833041F192A99130C1F1E2
:1008B000843019F191AD913099F18530F1F0DF017B
:1008C000A05CBF4F9C91913059F18630B1F01796E2
:1008D0009C91913029F1873081F017969C9191304D
:1008E000F9F0883051F017969C919130C9F0893019
:1008F00021F017969C91913099F09FEF980F9817DF
:1009000068F0DF91CF911F910F91FF90EF90DF90F2
:10091000CF90BF90AF909F908F900895892FF1CF87
:10092000DF015B96B82EEE24EA94FE2C90E08F0156
:100930000C5B1F4FBF01655B7F4FAF014E5A5F4F8E
:100940004F0129E5820E911C05C09F5F17968917FC
:1009500009F467C012962C9112972130B1F72C91AF
:10096000328D231709F462C0823078F331A1231746
:1009700009F465C0823049F330A5231709F468C033
:10098000833019F337A5231709F45DC08430E9F2E9
:1009900036A9231709F470C08530B9F235AD231795
:1009A00009F465C0863089F2E8013881231709F41B
:1009B00059C0873051F2EB013881231709F44DC03B
:1009C000883019F2EA0138812317A1F1893009F43E
:1009D000BCCFE40138812313B8CFD9E0CD2ED12C80
:1009E00029E0281708F0B1CF1396AC901397960121
:1009F000220F331F220F331F220F331F2C193D09E3
:100A00002E0F3F1FE9012E8D30E02A0D311D2E15CE
:100A10003F0508F09ACF7901B92E9F5F1796891389
:100A200099CFB81608F06DCF8B2D6BCFC12CD12C80
:100A300020E0D7CF28E0C22ED12C28E0D2CFCC2482
:100A4000C394D12CD1CF33E0C32ED12C23E0C9CF16
:100A5000C2E0CC2ED12C22E0C4CF37E0C32ED12C63
:100A600027E0BFCFC6E0CC2ED12C26E0BACFD5E010
:100A7000CD2ED12C25E0B5CF24E0C22ED12C24E000
:100A8000B0CFCF93DF93DC0111969C911197E09149
:100A90000001F09101018081981709F474C0992335
:100AA00009F471C06B3508F06EC02089222309F467
:100AB0008DC0828D981709F48DC0223008F46DC066
:100AC00081A1981709F49FC0223009F469C080A55C
:100AD000981709F48EC0233009F462C087A59817CF
:100AE00009F47DC0243009F45BC086A9981709F485
:100AF0007BC0253009F454C085AD981709F48DC02A
:100B0000263009F44DC0EF01CC5BDF4F8881981788
:100B100009F488C0273009F443C0279688819817C4
:100B200009F485C02830E1F127968881981709F4E7
:100B300065C02930A9F127968881981709F468C003
:100B40004AE050E09A01220F331F220F331F220F79
:100B5000331F241B350BE20FF31F928F12968C91DB
:100B60001297838F13968C911397848F14968C9180
:100B70001497858F668F14968C91882339F080A105
:100B80008F5F80A3178EDF91CF910895878D8F5F40
:100B9000878F10A2DF91CF91089541E02A3088F627
:100BA00081E0820F422F50E0808B9A01220F331F89
:100BB000220F331F220F331FE901C41BD50BCE0FA9
:100BC000DF1F1F8E11969C911197C3CF40E050E01C
:100BD00081E0EACF40E050E020E030E0BACF43E0EF
:100BE00050E028E130E0B5CF44E050E020E230E0D2
:100BF000B0CF42E050E020E130E0ABCF48E050E041
:100C000020E430E0A6CF41E050E028E030E0A1CF82
:100C100049E050E028E430E09CCF45E050E028E295
:100C200030E097CF46E050E020E330E092CF47E05D
:100C300050E028E330E08DCFDC0111969C911197B4
:100C4000E0910001F09101018081981789F01396DD
:100C50002C911397821769F012969C91129789171D
:100C600081F087858130B1F0E659FF4F10820895F9
:100C70000895918391E0978712969C91129789131A
:100C8000F0CF11969C911197928391E0978790896C
:100C9000913029F0E659FF4F81E080830895129644
:100CA0009C9112978913F6CF11968C918183828340
:100CB000F1CFCF93DF93C0910001D09101018B83DD
:100CC00088818C8399819D832A812E839887898747
:100CD0008F858F83FE01E859FF4F80818A871C86AC
:100CE000CE0103960E9403139E878D87E091000139
:100CF000F0910101118ADF91CF910895CF93DF9395
:100D0000DC01E0910001F0910101908117962C9196
:100D10001797921720F1291788F092131DC0DF0151
:100D2000A959BF4F81E08C9313961C9211961C9287
:100D3000E759FF4F8083DF91CF910895DF01A859D4
:100D4000BF4F2C9311971C92139681E08C931196B0
:100D50001C92E759FF4F1082DF91CF910895EF0168
:100D6000C859DF4F988317969C93DF01A659BF4F50
:100D70001C92119681E08C93E759FF4F1082DF910E
:100D8000CF9108958F929F92AF92BF92CF92DF92B0
:100D9000EF92FF920F931F93CF93DF93C0910001C7
:100DA000D09101018F85882369F0DF91CF911F9148
:100DB0000F91FF90EF90DF90CF90BF90AF909F90FA
:100DC0008F9008958889882381F32D8D2111EAC0A1
:100DD0009F8D933008F0EDC090E0823008F467C03A
:100DE0003CA131113FC13EA1333008F042C18230F5
:100DF00009F45DC03BA531112CC13DA5333008F08D
:100E00002FC1833009F453C03AA9311119C13CA94B
:100E1000333008F01CC1843009F449C039AD3111B8
:100E200006C13BAD333008F009C1853009F43FC03D
:100E3000FE01E05CFF4F30813111EDC03296308110
:100E4000333008F0F2C0863091F1FE01E95BFF4FCC
:100E500030813111D4C032963081333008F0D9C09E
:100E6000873029F1FE01E25BFF4F30813111AFC0C5
:100E700032963081333008F0B4C08830C1F0FE01C2
:100E8000EB5AFF4F30813111AEC032963081333092
:100E900008F0B3C0893059F0FE01E45AFF4F3081A9
:100EA000311189C032963081333008F08EC08913F9
:100EB0007CCF213009F4DFC08130D9F19CA1913081
:100EC00009F4D9C08230A9F19BA5913009F4D3C0AF
:100ED000833079F19AA9913009F4CDC0843049F179
:100EE00099AD913009F4C7C0853019F1FE01E05C7D
:100EF000FF4F9081913009F4BEC08630D1F0379613
:100F00009081913009F4B7C0873099F0379690817D
:100F1000913009F4B0C0883061F0379690819130FB
:100F200009F4A9C08A3029F437969081913009F4E8
:100F3000A2C0BB24BA94B80EB81608F036CF1989EF
:100F4000113009F032CF1F87FE01B7E0BB9EE00DE4
:100F5000F11D1124838D8983228D2A8392E09B8346
:100F600098819C838D832E83888799871F83FE01B8
:100F7000E859FF4F80818A871C86CE0103960E9424
:100F800003139E878D87E0910001F0910101118A82
:100F9000DF01A659BF4F1C9311961C92E759FF4FD2
:100FA000108203CF213009F017CF98A1933008F4B5
:100FB00013CF91E012CF313009F079CFFE01E15A21
:100FC000FF4F3081333008F472CF9F5F70CF3130E4
:100FD00009F053CFFE01EF5AFF4F3081333008F450
:100FE0004CCF9F5F4ACF313009F054CFFE01E85A11
:100FF000FF4F3081333008F44DCF9F5F4BCF3130FE
:1010000009F02ECFFE01E65BFF4F3081333008F44C
:1010100027CF9F5F25CF313009F015CFFE01ED5B63
:10102000FF4F3081333008F40ECF9F5F0CCF31304B
:1010300009F0FBCE3CAD333008F4F7CE9F5FF5CE20
:10104000313009F0E8CE3DA9333008F4E4CE9F5F9B
:10105000E2CE313009F0D5CE3EA5333008F4D1CE02
:101060009F5FCFCE313009F0C2CE3FA1333008F4BC
:10107000BECE9F5FBCCEFE017B96B82EEE24EA94D6
:10108000FE2C90E08E010C5B1F4FBE01655B7F4F15
:10109000AE014E5A5F4F4E0129E5820E911C05C0EC
:1010A0009F5F3796891709F461C022812130C1F70B
:1010B00020813A8D231709F45DC0813089F339A16D
:1010C000231709F45FC0823059F338A5231709F4B8
:1010D00062C0833029F33FA5231709F457C0843039
:1010E000F9F23EA9231709F46AC08530C9F23DAD73
:1010F000231709F45FC0863099F2D8013C91231779
:1011000009F453C0873061F2DB013C91231709F4E5
:1011100047C0883029F2DA013C91231771F18930F8
:1011200009F4BECFD4013C912313BACFB9E0CB2E42
:10113000D12C29E0281708F0B3CFA3809601220F05
:10114000331F220F331F220F331F2C193D092C0F81
:101150003D1FD9015E962C9130E02A0D311D2E15D0
:101160003F0508F09DCF7901B92E9ACFB81608F443
:10117000E6CE1BCEC12CD12CE0CF28E0C22ED12C44
:1011800028E0D8CFCC24C394D12CD7CF33E0C32EC2
:10119000D12C23E0CFCFA2E0CA2ED12C22E0CACF9F
:1011A00037E0C32ED12C27E0C5CFA6E0CA2ED12C24
:1011B00026E0C0CFB5E0CB2ED12C25E0BBCF24E07C
:1011C000C22ED12C24E0B6CFCF93DF938EE190E0F6
:1011D0000E94760C0E94C206C0910001D0910101CC
:1011E0002A893B898C899D892817390720F08989AC
:1011F000813009F445C081E0FE01EA59FF4F808348
:101200008F85813019F1FE01E759FF4F208123704E
:10121000822F880F880F32969081937040E1949FBF
:1012200090011124282BC659DF4F88818370822BAF
:101230000E94B610E0910001F0910101828993892A
:101240000196938B828BDF91CF91089589898130AC
:1012500009F43FC0FE01E959FF4F8081882399F2CC
:10126000888D998DE92FF0E0EE0FFF1FEC0FFD1F29
:10127000EF59FF4F2081821729F18F5F888FC3CFED
:101280008B8388818C8399819D832A812E83988783
:1012900089878F858F83FE01E859FF4F80818A8778
:1012A0001C86CE0103960E9403139E878D87C091F2
:1012B0000001D0910101198A8A899B8944969D8BEE
:1012C0008C8B99CF9F5F998F933031F181E0888F1C
:1012D0009ACF94E09B8398819C8329812D833A81C6
:1012E0003E83288799878F83329680818A871C86E0
:1012F000CE0103960E9403139E878D87C091000143
:10130000D0910101198AFE01EA59FF4F10828F85A1
:10131000813009F49FCF77CF1F8A75CFCF93DF93AA
:10132000C0910001D09101012A893B898C899D8956
:101330002817390718F08989813019F0DF91CF918A
:1013400008958B8388818C8399819D832A812E8344
:10135000988789878F858F83FE01E859FF4F8081A9
:101360008A871C86CE0103960E9403139E878D8771
:10137000E0910001F0910101118A828993894496DC
:10138000958B848BDF91CF910895CF93DF93C0919C
:101390000001D0910101FE01EA59FF4F81E08083F5
:1013A0008F85813019F0DF91CF910895898981303F
:1013B000D1F794E09B8398819C8329812D833A8186
:1013C0003E83288799878F83329680818A871C86FF
:1013D000CE0103960E9403139E878D87E091000142
:1013E000F0910101118AEA59FF4F1082DCCFE091A0
:1013F0000001F09101018785813009F00895DF0136
:10140000A959BF4F8C918823C9F3808D918DA92F45
:10141000B0E0AA0FBB1FAE0FBF1FAF59BF4F2C913B
:10142000821719F08F5F808F08959F5F918F93309F
:1014300019F081E0808FF8CF178A0895089580E031
:1014400090E008950895DF92EF92FF920F931F931B
:10145000CF93DF93F89414B817B81AB815B818B822
:101460001BB8529A5A9A14BC85E085BD8FEF87BD90
:1014700082E080936E0010928000109281002FE82D
:101480003BE0309389002093880080936F0053984D
:10149000239891EA9093B0008093B1001092B40029
:1014A0001092B3008BE080BF83E080937F0086E0E2
:1014B00080937C0083E880937A0080917A00806436
:1014C00080937A0080917A0086FDFCCF10927C0098
:1014D00083EA80937A0081E080937B0081E090E052
:1014E0000E94411C8F3F11F0809366001092A5016D
:1014F000C1E0C0937E01C093C20110929C01109282
:10150000D60180E990E00E94411C80939B0180916C
:101510009B01887311F0C0939B011092C601109239
:10152000C5018FEF90E09093C4018093C3011092A6
:10153000A1011092A2011092A3011092A40181E0D6
:101540008093110182E49FE09093D5018093D401B0
:1015500080EB90E00E94411CC82F81EB90E00E943C
:10156000411C2C2F30E0382B3093D8012093D70129
:1015700085E090E00E94411C8093DB0189E090E0CF
:101580000E94411C8093C7018CE090E00E94411CA6
:101590008093D90184E190E00E94411C8093DA019C
:1015A00056EAE52E51E0F52E0FE711E0C0E2D0E05B
:1015B000CE010E94411CD82ECE0101960E94411CF2
:1015C0002D2D30E0322F2227282BF7012193319344
:1015D0007F01CE01C0960E94411CD82ECE01C1963B
:1015E0000E94411C2D2D30E0322F2227282BF8019C
:1015F000219331938F012296CC33D105C9F678948B
:10160000DF91CF911F910F91FF90EF90DF900895A0
:101610001F920F920FB60F9211248F930FB6F8946A
:10162000A8958091600088618093600010926000AE
:101630000FBE8F910F900FBE0F901F9018953C0119
:10164000EB0110E099249A9484E0C82E96E0A92E2C
:1016500023E8B22E38E1D32E49E2E42EE0911101C5
:10166000F0E0E730F105D0F7EC5CFF4F0C94ED179C
:10167000112309F405C1C092110111E0FE01099581
:10168000EDCF8091A501811105C1F894A0927C0055
:10169000B0927A0080917A00806480937A00809181
:1016A0007A0086FDFCCF8091780090917900789443
:1016B0008B3AE2E09E070CF0E6C08938F2E09F0723
:1016C0000CF0EFC0873692400CF4E4C0559A549A5F
:1016D0003B9A3A9A3D983C98C1CF559854983B9A7A
:1016E0003A9A3D983C98EFECF7E03197F1F700C05B
:1016F0000000559854983B983A983D983C98FFEFD5
:1017000021EE84E0F15020408040E1F700C000006D
:10171000A5CFF89480B7877F80BF80917A008F77BC
:1017200080937A0014B817B81AB815B818B81BB84F
:101730000FB6F894A895D09260000FBEE0926000BA
:101740008091600080648093600083B7817F8460B3
:1017500083BFF89483B7816083BF7894889583B7FB
:101760008E7F83BF78941092A501529A5A9A8091E5
:101770007A00806880937A0087E592E00197F1F71C
:1017800000C0000080B7886180BF559A549A3B9A88
:101790003A9A3D9A3C9AEFE1FEE43197F1F700C0A6
:1017A00000008091A50181115BC0559854983B9829
:1017B0003A983D983C9852CF80910F01811125C0F5
:1017C0001092B3001092B4001092100147CF4899C4
:1017D000ECCF559A54983B983A983D983C988FECAA
:1017E00097E00197F1F700C00000559854983B9896
:1017F0003A983D983C989FEFE1EEF4E09150E0403C
:10180000F040E1F700C0000029CF90910F018091D6
:101810001001981709F422CF80910F0180931001D5
:1018200080910F01813009F450C080910F01109216
:10183000B3009092B4008230D9F19092B3009092AC
:10184000B4008FE295E70197F1F700C000008091A6
:10185000DA019091D9019093B3008093B400FECE49
:10186000559A549A3B983A983D983C98FFEF20E758
:1018700082E0F15020408040E1F700C0000095CFA9
:10188000F3010995F8CE559854983B9A3A9A3D98A9
:101890003C98E4CE559A549A3B983A983D983C9897
:1018A000DDCE559854983B983A983D9A3C9AD6CEBE
:1018B000EFE2F5E73197F1F700C000008091C70132
:1018C0001092B3008093B400C9CE9092B3001092EE
:1018D000B4008FE295E70197F1F700C00000809116
:1018E000DB018093B3001092B400B8CE07C0EFECD8
:1018F000F7E03197F1F700C0000001970097B9F7C2
:1019000008958093B3006093B40008958FEF80939F
:10191000B3008093B4008FE090E0EFECF7E03197F4
:10192000F1F700C000000197C1F708958091A5016B
:1019300081111EC0F89487E080937C0083E8809337
:101940007A0080917A00806480937A0080917A0096
:1019500086FDFCCF809178009091790010927C00F8
:1019600023EA20937A0021E020937B007894089565
:101970008FEF9FEF08958091A50181111EC0F8940B
:1019800088EC80937C0087E880937A0080917A00CD
:10199000806480937A0080917A0086FDFCCF8091EC
:1019A00078009091790010927C0023EA20937A00CD
:1019B00021E020937B00789408958FEF9FEF0895A6
:1019C0000F931F93CF93DF93E0E0F0E080E003EA12
:1019D00011E0D6E0C3E8A1E0B0E060E870E0F89480
:1019E000D0937C00C0937A0090917A009064909399
:1019F0007A0090917A0096FDFCCF2091780030918A
:101A00007900217090917A00906490937A0090917F
:101A10007A0096FDFCCF40917800509179001092A9
:101A20007C0000937A0010937B007894417024131B
:101A300003C06150710999F6222339F09D010E2EE1
:101A400001C0220F0A94EAF7822B3196E830F105A3
:101A500009F0C3CFDF91CF911F910F91089580912D
:101A60000201982F990F990F990F892790910E01D4
:101A700021E0290F20930E01282F2295269527700B
:101A800082279695969589278093020108958093E1
:101A9000020108958091A501811116C0F89486E095
:101AA00080937C0083E880937A0080917A00806440
:101AB00080937A0080917A0086FDFCCF8091780037
:101AC00090917900789408958FEF9FEF08952F9269
:101AD0003F924F925F926F927F928F929F92AF92BE
:101AE000BF92CF92DF92EF92FF920F931F93CF930B
:101AF000DF9300D000D000D0CDB7DEB71C01DC01F1
:101B000012960D90BC91A02DBE83AD83A438E3E066
:101B1000BE070CF0CBC080917F01909180018A17A5
:101B20009B0708F48CC100918101109182010A1772
:101B30001B0708F422C200918301109184010A1747
:101B40001B0708F428C200918501109186010A172D
:101B50001B0708F424C200918701109188010A171D
:101B60001B0708F425C20091890110918A010A1708
:101B70001B0708F4E6C100918B0110918C010A1734
:101B80001B0708F41EC200918D0110918E010A17E7
:101B90001B0708F41FC200918F01109190010A17D2
:101BA0001B0708F425C200919101109192010A17B8
:101BB0001B0708F426C200919301109194010A17A3
:101BC0001B0708F422C200919501109196010A1793
:101BD0001B0708F423C200919701109198010A177E
:101BE0001B0708F424C20091990110919A010A1769
:101BF0001B0708F425C280E090E0A0EDB0E48983E3
:101C00009A83AB83BC832CE0E22EF12CF701EE0F1C
:101C1000FF1FE158FE4F80819181B801681B790B4D
:101C200080E090E00E9462199B01AC010E944E1876
:101C30006B017C01AD81BE81BD01BB0F880B990B8F
:101C40000E9464194B015C01B80180E090E00E94A1
:101C500062192B013C0129813A814B815C81C701CA
:101C6000B6010E94F0199B01AC01C301B2010E94B0
:101C70004D189B01AC01C501B4010E944D1820E034
:101C800030E040E251E40E94F0190E942C198B01CF
:101C9000C701B6010E942C19AB01BC01C801BA01F1
:101CA0000E94D9176983ED81FE81CBC0DC01CD9004
:101CB000DC908091A6019091A7018C159D0508F4F8
:101CC000DFC0BFEFB9830091A8011091A9010C15E5
:101CD0001D0508F456C10091AA011091AB010C1525
:101CE0001D0508F453C10091AC011091AD010C1514
:101CF0001D0508F458C10091AE011091AF010C15FB
:101D00001D0508F459C10091B0011091B1010C15E5
:101D10001D0508F4B7C00091B2011091B3010C1574
:101D20001D0508F452C10091B4011091B5010C15C4
:101D30001D0508F453C10091B6011091B7010C15AF
:101D40001D0508F450C10091B8011091B9010C159E
:101D50001D0508F451C10091BA011091BB010C1589
:101D60001D0508F456C10091BC011091BD010C1570
:101D70001D0508F457C10091BE011091BF010C155B
:101D80001D0508F458C10091C0011091C1010C1546
:101D90001D0508F459C11AE5B981BF3F09F459C1BD
:101DA000ED81FE81BF01FF0F880B990B0E94641922
:101DB0004B015C01F9816F2F70E080E090E00E94A0
:101DC00062196B017C01A501940160E070E081E67D
:101DD00094E40E944D189B01AC01C701B6010E941A
:101DE000F0196B017C01612F70E080E090E00E94AF
:101DF00062192B013C0120E030E04FE254E4C501C0
:101E0000B4010E944D189B01AC01C301B2010E94B4
:101E1000F0199B01AC01C701B6010E944E1820E0E9
:101E200030E048E453E40E94BA1820E030E044E097
:101E300052E40E944E180E943319862F08C019825E
:101E4000FD01ED3BF2400CF007C189818F5D2696C4
:101E50000FB6F894DEBF0FBECDBFDF91CF911F91BB
:101E60000F91FF90EF90DF90CF90BF90AF909F9039
:101E70008F907F906F905F904F903F902F9008953C
:101E800081E2E5CFF5E03F2EE5E0F0E0EE0FFF1F49
:101E9000EC55FE4F80819181B801681B790B80E081
:101EA00090E00E9462199B01AC010E944E184B0108
:101EB0005C01B601DD0C880B990B0E9464192B01A3
:101EC0003C01B80180E090E00E9462196B017C0146
:101ED000632D70E080E090E00E94621920E030E025
:101EE00040E05FE30E94F01920E030E0A9010E9489
:101EF0004E18A50194010E94F0199B01AC01C70185
:101F0000B6010E944D189B01AC01C301B2010E94B1
:101F10004D1820E030E040E251E40E94F0190E94A8
:101F20002C198B01C501B4010E942C19AB01BC0115
:101F3000C801BA010E94D917162F6F3F09F02CCFA4
:101F400084CF65E085E090E07C01F1E0EF1AF108D4
:101F500070E080E090E00E94621920E030E040E014
:101F60005FE30E94F01920E030E0A9010E944E18C2
:101F700069837A838B839C8349CE61E081E090E022
:101F8000E3CF33243394E1E0F0E080CF82E0382ED9
:101F9000E2E0F0E07BCF62E082E090E0D5CF63E06A
:101FA00083E090E0D1CFB3E03B2EE3E0F0E06ECFF2
:101FB00064E084E090E0C8CFA4E03A2EE4E0F0E0F2
:101FC00065CF66E086E090E0BFCFE6E03E2EE6E03B
:101FD000F0E05CCF67E087E090E0B6CF77E0372EA7
:101FE000E7E0F0E053CF68E0362EE8E0F0E04ECFD7
:101FF00068E088E090E0A8CF59E0352EE9E0F0E015
:1020000045CF69E089E090E09FCF6AE08AE090E008
:102010009BCF4AE0342EEAE0F0E038CF6BE08BE073
:1020200090E092CF3BE0332EEBE0F0E02FCF6CE07E
:102030008CE090E089CF2CE0322EECE0F0E026CF6F
:102040006DE08DE090E080CF9DE0392EEDE0F0E096
:102050001DCF81E2810FFBCED101CD90DC9080912C
:10206000A6019091A7018C159D0508F02CCE10E0DB
:1020700093CE1F920F920FB60F9211242F933F937E
:102080004F935F936F937F938F939F93AF93BF9380
:10209000EF93FF932091C5013091C6018091C30158
:1020A0009091C401820F931F9093C6018093C50144
:1020B0008FEF90E09093C4018093C3018FEF87BDB1
:1020C0008091A1019091A201A091A301B091A401DE
:1020D0000196A11DB11D8093A1019093A201A0932F
:1020E000A301B093A4018091A50181110FC080913B
:1020F000D4019091D5012091C5013091C60182177C
:10210000930720F480911101843089F0FF91EF91C1
:10211000BF91AF919F918F917F916F915F914F91FF
:102120003F912F910F900FBE0F901F901895E09147
:102130000501F09106010995009741F30E94BC1337
:1021400081110AC00E94A91A9C0133273093C4014F
:102150002093C30187BDDACFE0910301F091040120
:1021600009951092C6011092C501D0CF80FF11C011
:10217000559A81FF11C0549A82FF11C03B9A83FF88
:1021800011C03A9A84FF11C03D9A85FD11C03C9858
:102190000895559881FDEFCF549882FDEFCF3B987D
:1021A00083FDEFCF3A9884FDEFCF3D9885FFEFCFC9
:1021B0003C9A08951F920F920FB60F9211248F939D
:1021C0009F9310928100109285001092840081E00C
:1021D00080937E018093C2011092A50110927C0031
:1021E00093EA90937A0080937B009F918F910F9058
:1021F0000FBE0F901F9018951F920F920FB60F925F
:1022000011242F933F934F935F936F937F938F93FB
:102210009F93AF93BF93CF93DF93EF93FF9320915F
:1022200084003091850041E04093A50180917E01BA
:102230008823A9F1109285001092840040938100B8
:102240001092D60110927E018091C2018823A1F0E4
:1022500080917A0086FDFCCF809178009091790082
:102260009093A00180939F0181E080937C0093EA8A
:1022700090937A0080937B00FF91EF91DF91CF9153
:10228000BF91AF919F918F917F916F915F914F918E
:102290003F912F910F900FBE0F901F901895C9017D
:1022A000875891098437994008F04FC02658310962
:1022B000A4EFB0E00E94F317AA27BB27883008F4E8
:1022C0007BC040937E018091C201811152C08091F8
:1022D0009C01E82FF0E0E853FE4F9091D6019083E7
:1022E0008F5F80939C018C3039F6109281001092A0
:1022F0008500109284004093C2011092A501C09104
:10230000D201D091D30188EC91E00E940313C81749
:10231000D90709F0B1CF8091D10187FF61C098E75B
:10232000980F933030F0539823981092B400109285
:10233000B30090E0FC01E058F109EB30F10508F042
:102340009BCFE55CFF4F0C94ED171092810010922B
:1023500085001092840040937E014093C201109248
:10236000A50110927C0083EA80937A0040937B0061
:1023700083CF80917A0086FDFCCF80917800909188
:10238000790090939E0180939D0110927C0083EAD6
:1023900080937A0081E080937B009091D60199230D
:1023A000D1F01092810010928500109284008093E9
:1023B000C2011092A50160CF21E030E0F90102C016
:1023C000EE0FFF1F8A95E2F7CF019091D601892B7E
:1023D0008093D60151CF1092C20110929C014CCF34
:1023E000E0910701F09108016DE971E088EC91E05E
:1023F000099542CF8091C801823009F4DDC008F40C
:10240000BAC0833009F4C6C0843009F0B1C08091ED
:102410000F019091CE01833009F4E3C08091CD018A
:102420001092100123E020930F018093D901909323
:10243000DA0180911101863009F41ECF539A239A54
:102440001092B4001092B30086E08093110114CF73
:1024500080911101863099F0539A239A1092B4001A
:102460001092B300559854983B983A983D983C98F0
:1024700010920F011092100186E08093110181E00B
:1024800090E09C010090C80102C0220F331F0A9403
:10249000E2F78091D7019091D80182239323892B71
:1024A00009F086C010920F01E7CE81E08093110100
:1024B000E3CEE0E0F0E0099580916E008D7F80939F
:1024C0006E0016BCE0E0F0E7099510921101D4CE41
:1024D00082E080931101D0CE85E080931101CCCEB3
:1024E00080911101833009F4C7CE809111018430AD
:1024F00009F4C2CE539A239A1092B4001092B300FA
:1025000083E080931101B8CE80911101863009F0EB
:10251000B3CE6091D70180EB90E00E94491C60919E
:10252000D80181EB90E00E94491C6091DB0185E0BD
:1025300090E00E94491C6091C70189E090E00E94F0
:10254000491C6091D9018CE090E00E94491C609187
:10255000DA0184E190E00E94491C5398239810927C
:10256000B4001092B30081E0809311018091C80102
:1025700081115FCF81CE882339F28130C9F78091F4
:10258000C9019091CA019093D8018093D70110920C
:102590000F014FCF80910F01823071F18091CC01FA
:1025A0001092100192E090930F018093C70141CFE8
:1025B00081E080930F0160CE80910F01813051F056
:1025C0008091CB011092100191E090930F018093C4
:1025D000DB012FCF8091CB019091DB018913F2CFEA
:1025E00028CF8091DA01981319CF8091CD012091E5
:1025F000D901821315CF1DCF8091CC019091C701D5
:102600008913CECF16CFFC0180812FEF3FEF282713
:10261000022E2295207F2025032E322F22952F7007
:102620000226269532272327220F220F220F20254C
:1026300081812827022E2295207F2025032E322FEC
:1026400022952F700226269532272327220F220F4C
:10265000220F202582812827022E2295207F2025E7
:10266000032E322F22952F700226269532272327FC
:10267000220F220F220F202583812827022E229548
:10268000207F2025032E322F22952F70022626959B
:1026900032272327220F220F220F2025848128276B
:1026A000022E2295207F2025032E322F22952F7077
:1026B0000226269532272327220F220F220F2025BC
:1026C00085812827022E2295207F2025032E322F58
:1026D00022952F700226269532272327220F220FBC
:1026E000220F202586812827022E2295207F202553
:1026F000032E322F22952F7002262695322723276C
:10270000220F220F220F202587812827022E2295B3
:10271000207F2025032E322F22952F70022626950A
:1027200032272327220F220F220F202580852827DA
:10273000022E2295207F2025032E322F22952F70E6
:102740000226269532272327220F220F220F20252B
:102750004185C9018427082E8295807F8025092E16
:10276000982F82958F700826869598278927880F3D
:10277000880F880F802508950FB6F894A4B1209192
:102780009B012A2B24B921E030919B01203029F0B4
:10279000000025B1232B25B904C000000000000073
:1027A00000C0000000000000309525B1232325B9AA
:1027B0002EEA2A95F1F72BEE30B735FF0AC0A4B9FF
:1027C00030919B01309525B1232325B90FBE80E0C0
:1027D000089500002A9581F721E030919B01203077
:1027E00029F0000025B1232B25B904C0000000000A
:1027F000000000C0000000000000309525B1232338
:1028000025B9000024E52A95F1F7FC018CE06191DF
:1028100070E0660F771F616072609AE041E050E0FF
:102820009A0126233723232B30919B01203029F056
:10283000000025B1232B25B904C0000000000000D2
:1028400000C0000000000000309525B1232325B909
:10285000000021E52A95F1F7440F551F9A9501F7DD
:102860008A95A9F620B7206120BFA4B930919B01B9
:10287000309525B1232325B90FBE81E00895A0E14D
:10288000B0E0E5E4F4E10C9402187C011B016A015C
:10289000FC0117821682838181FF44C39E012F5F52
:1028A0003F4F3901F7019381F10193FD859193FF2A
:1028B00081911F01882309F431C3853239F493FDD6
:1028C000859193FF81911F01853239F4B70190E022
:1028D0000E94A71B56016501E5CF10E0512C912CF9
:1028E000FFE1F915D8F08B3279F038F4803279F0C5
:1028F0008332A1F4F92DF0612EC08D3261F0803366
:1029000069F4292D21602DC0392D3260932E892D37
:102910008460982E2AC0E92DE86015C097FC2DC070
:1029200020ED280F2A3088F496FE06C03AE0139F67
:10293000200D1124122F19C08AE0589E200D112459
:10294000522EE92DE0629E2E10C08E3231F496FC9C
:10295000E5C2F92DF0649F2E08C08C3621F4292D94
:102960002068922E02C0883641F4F10193FD8591D2
:1029700093FF81911F018111B3CF9BEB980F93308F
:1029800020F4992D9061805E07C09BE9980F9330E9
:1029900008F066C1992D9F7E96FF16E09F73992ED1
:1029A000853619F49064992E08C0863621F4392FA3
:1029B0003068932E02C01111115097FE07C01C33CE
:1029C00050F444244394410E27E00BC0183038F0F3
:1029D00027E017E005C027E09CE3492E02C0212F25
:1029E000412C560184E0A80EB11CF6016081718172
:1029F00082819381042DA3010E94B91A6C01F9818F
:102A0000FC87F0FF02C0F3FF06C091FC06C092FEF7
:102A100006C000E205C00DE203C00BE201C000E009
:102A20008C858C7019F001115AC29BC297FE10C0A0
:102A30004C0CFC85F4FF04C08A81813309F44A946C
:102A4000141474F528E0241578F588E0482E2CC07D
:102A500096FC2AC0812F90E08C159D059CF03CEFE0
:102A6000C3163FEFD30674F0892D8068982E0AC0F4
:102A7000E2E0F0E0EC0FFD1FE10FF11D80818033FB
:102A800019F411501111F4CF97FE0EC04424439451
:102A9000410E812F90E0C816D9062CF41C1904C0F1
:102AA0004424439401C010E097FE06C01C141D048A
:102AB00034F4C601019605C085E090E002C081E0D3
:102AC00090E001110196112331F0212F30E02F5FAA
:102AD0003F4F820F931F252D30E08217930714F488
:102AE000581A01C0512C892D897049F4552039F0AC
:102AF000B70180E290E00E94A71B5A94F7CF002311
:102B000029F0B701802F90E00E94A71B93FC09C019
:102B1000552039F0B70180E390E00E94A71B5A943A
:102B2000F7CF97FE4CC04601D7FE02C0812C912CF6
:102B3000C60188199909F301E80FF91FFE87ED878F
:102B4000960124193109388B2F87012F10E0119538
:102B5000019511093FEF8316930629F4B7018EE220
:102B600090E00E94A71BC814D9044CF08F85988967
:102B70008815990524F4ED85FE85818101C080E3E7
:102B8000F1E08F1A91082D853E852F5F3F4F3E87DC
:102B90002D87801691062CF0B70190E00E94A71BAC
:102BA000D9CFC814D90441F49A81963320F49533CF
:102BB00019F43C8534FF81E3B70190E04EC08A816F
:102BC000813319F09C859F7E9C87B70190E00E941D
:102BD000A71B111105C094FC18C085E690E017C032
:102BE000B7018EE290E00E94A71B1E5F82E001E029
:102BF000080FF301E80FF11D8081B70190E00E94FA
:102C0000A71B802F0113F3CFE6CF85E490E0B70137
:102C10000E94A71BD7FC06C0C114D10441F4EC8567
:102C2000E4FF05C0D194C194D1088DE201C08BE2CC
:102C3000B70190E00E94A71B80E32AE0C216D104EE
:102C40002CF08F5FFAE0CF1AD108F7CFB70190E0F0
:102C50000E94A71BB701C601C0960E94A71B54C1C2
:102C6000833631F0833779F0833509F056C020C0C0
:102C7000560132E0A30EB11CF6018081898301E088
:102C800010E0630112C05601F2E0AF0EB11CF60174
:102C9000C080D18096FE03C0612F70E002C06FEF4C
:102CA0007FEFC6010E949C1B8C01F92DFF7714C099
:102CB000560122E0A20EB11CF601C080D18096FE22
:102CC00003C0612F70E002C06FEF7FEFC6010E946A
:102CD000911B8C01F92DF0689F2EF3FD1AC0852DF4
:102CE00090E008171907A8F4B70180E290E00E946D
:102CF000A71B5A94F4CFF60197FC859197FE81911A
:102D00006F01B70190E00E94A71B51105A94015027
:102D100011090115110579F7F7C0843611F08936CC
:102D200061F5560197FE09C024E0A20EB11CF60120
:102D300060817181828193810AC0F2E0AF0EB11C83
:102D4000F60160817181072E000C880B990BF92D1B
:102D5000FF769F2E97FF09C090958095709561959D
:102D60007F4F8F4F9F4FF0689F2E2AE030E0A301E6
:102D70000E94E31BC82EC6183FC0092D853721F4D9
:102D80000F7E2AE030E01DC0097F8F3691F018F4E5
:102D9000883559F0C3C0803719F0883711F0BEC0AC
:102DA000006104FF09C0046007C094FE08C006600B
:102DB00006C028E030E005C020E130E002C020E19C
:102DC00032E0560107FF09C084E0A80EB11CF601ED
:102DD000608171818281938108C0F2E0AF0EB11CE5
:102DE000F6016081718180E090E0A3010E94E31B05
:102DF000C82EC6180F77902E96FE0BC0092D0E7F99
:102E0000C11650F494FE0AC092FC08C0092D0E7E33
:102E100005C0DC2C092D03C0DC2C01C0D12E04FF21
:102E20000DC0FE01EC0DF11D8081803311F4097E8F
:102E300009C002FF06C0D394D39404C0802F8678C3
:102E400009F0D39403FD11C000FF06C01C2DD5145A
:102E500080F4150D1D190DC0D51458F4B70180E28A
:102E600090E00E94A71BD394F7CFD51410F45D18FF
:102E700001C0512C04FF10C0B70180E390E00E9414
:102E8000A71B02FF17C001FD03C088E790E002C046
:102E900088E590E0B7010CC0802F867859F001FFDB
:102EA00002C08BE201C080E207FD8DE2B70190E035
:102EB0000E94A71BC11638F4B70180E390E00E947E
:102EC000A71B1150F7CFCA94F301EC0DF11D8081BF
:102ED000B70190E00E94A71BC110F5CF15C0F4E028
:102EE000F51560F584E0581A93FE1FC0011127C044
:102EF0002C8523FF2AC00CE810E0392D3071932E69
:102F0000F8018491811124C0552009F4E4CCB70163
:102F100080E290E00E94A71B5A94F6CFF7018681C9
:102F2000978126C08FEF9FEF23C0B70180E290E02A
:102F30000E94A71B5A945110F8CFD8CF512CB7013B
:102F4000802F90E00E94A71BD3CF00E910E0D5CFDF
:102F500091108052B70190E00E94A71B0F5F1F4F96
:102F6000CFCF23E0251510F483E0BDCF512CC0CF87
:102F70006096E2E10C941E180E94230A82EF90E012
:102F800090930601809305018BEF90E090930401EC
:102F90008093030182E591E09093080180930701FB
:102FA00064EE78E08DE091E00E941F0B80E090E0FD
:102FB000089597FB072E16F4009407D077FD09D0EB
:102FC0000E94391807FC05D03EF4909581959F4FDB
:102FD0000895709561957F4F0895EE0FFF1F05903E
:102FE000F491E02D0994A29FB001B39FC001A39F6B
:102FF000700D811D1124911DB29F700D811D112432
:10300000911D08952F923F924F925F926F927F92FF
:103010008F929F92AF92BF92CF92DF92EF92FF92E8
:103020000F931F93CF93DF93CDB7DEB7CA1BDB0B94
:103030000FB6F894DEBF0FBECDBF09942A88398839
:1030400048885F846E847D848C849B84AA84B98440
:10305000C884DF80EE80FD800C811B81AA81B9814C
:10306000CE0FD11D0FB6F894DEBF0FBECDBFED0160
:103070000895AA1BBB1B51E107C0AA1FBB1FA617BF
:10308000B70710F0A61BB70B881F991F5A95A9F711
:1030900080959095BC01CD0108955058BB27AA2773
:1030A0000E9465180C94B6190E94A81938F00E9465
:1030B000AF1920F039F49F3F19F426F40C94A519A8
:1030C0000EF4E095E7FB0C949F19E92F0E94C719B5
:1030D00058F3BA17620773078407950720F079F44D
:1030E000A6F50C94E9190EF4E0950B2EBA2FA02D3D
:1030F0000B01B90190010C01CA01A0011124FF27A5
:10310000591B99F0593F50F4503E68F11A16F0409F
:10311000A22F232F342F4427585FF3CF469537959E
:103120002795A795F0405395C9F77EF41F16BA0B63
:10313000620B730B840BBAF09150A1F0FF0FBB1F11
:10314000661F771F881FC2F70EC0BA0F621F731F5A
:10315000841F48F4879577956795B795F7959E3FB7
:1031600008F0B0CF9395880F08F09927EE0F979548
:10317000879508950E94CE180C94B6190E94AF1935
:1031800058F00E94A81940F029F45F3F29F00C94F0
:103190009F1951110C94EA190C94A5190E94C71992
:1031A00068F39923B1F3552391F3951B550BBB2776
:1031B000AA2762177307840738F09F5F5F4F220FBB
:1031C000331F441FAA1FA9F335D00E2E3AF0E0E8B2
:1031D00032D091505040E695001CCAF72BD0FE2FFC
:1031E00029D0660F771F881FBB1F26173707480790
:1031F000AB07B0E809F0BB0B802DBF01FF27935848
:103200005F4F3AF09E3F510578F00C949F190C9453
:10321000EA195F3FE4F3983ED4F386957795679576
:10322000B795F7959F5FC9F7880F911D969587957C
:1032300097F90895E1E0660F771F881FBB1F62179B
:1032400073078407BA0720F0621B730B840BBA0B59
:10325000EE1F88F7E09508950E9433196894B11124
:103260000C94EA1908950E94CF1988F09F5798F09E
:10327000B92F9927B751B0F0E1F0660F771F881F7B
:10328000991F1AF0BA95C9F714C0B13091F00E9495
:10329000E919B1E008950C94E919672F782F882770
:1032A000B85F39F0B93FCCF3869577956795B395BC
:1032B000D9F73EF490958095709561957F4F8F4F2B
:1032C0009F4F0895E89409C097FB3EF49095809530
:1032D000709561957F4F8F4F9F4F9923A9F0F92FDC
:1032E00096E9BB279395F695879577956795B7955A
:1032F000F111F8CFFAF4BB0F11F460FF1BC06F5F40
:103300007F4F8F4F9F4F16C0882311F096E911C051
:10331000772321F09EE8872F762F05C0662371F072
:1033200096E8862F70E060E02AF09A95660F771F86
:10333000881FDAF7880F9695879597F9089597F97A
:103340009F6780E870E060E008959FEF80EC08954B
:1033500000240A9416161706180609060895002474
:103360000A9412161306140605060895092E0394EE
:10337000000C11F4882352F0BB0F40F4BF2B11F462
:1033800060FF04C06F5F7F4F8F4F9F4F089557FDC1
:103390009058440F551F59F05F3F71F04795880FC3
:1033A00097FB991F61F09F3F79F08795089512165A
:1033B00013061406551FF2CF4695F1DF08C0161606
:1033C00017061806991FF1CF8695710561050894B7
:1033D0000895E894BB2766277727CB0197F90895CE
:1033E0000E94031A0C94B6190E94A81938F00E9482
:1033F000AF1920F0952311F00C949F190C94A51986
:1034000011240C94EA190E94C71970F3959FC1F317
:10341000950F50E0551F629FF001729FBB27F00D82
:10342000B11D639FAA27F00DB11DAA1F649F6627D7
:10343000B00DA11D661F829F2227B00DA11D621F26
:10344000739FB00DA11D621F839FA00D611D221FE0
:10345000749F3327A00D611D231F849F600D211DC4
:10346000822F762F6A2F11249F5750409AF0F1F047
:1034700088234AF0EE0FFF1FBB1F661F771F881FB0
:1034800091505040A9F79E3F510580F00C949F1930
:103490000C94EA195F3FE4F3983ED4F38695779550
:1034A0006795B795F795E7959F5FC1F7FE2B880F56
:1034B000911D9695879597F908958F929F92AF9257
:1034C000BF92CF92DF92EF92FF92CF93DF93EC0106
:1034D000688179818A819B816115710581059105DA
:1034E00021F464E279ED8BE597E02DE133EF41E0E3
:1034F00050E00E94571C49015A019B01AC01A7EA08
:10350000B1E40E94761C6B017C01ACEEB4EFA50126
:1035100094010E94841CDC01CB018C0D9D1DAE1D0D
:10352000BF1DB7FF03C00197A109B04888839983E5
:10353000AA83BB839F77DF91CF91FF90EF90DF90BD
:10354000CF90BF90AF909F908F9008950E945D1A8A
:10355000089589E091E00E945D1A0895A0E0B0E02E
:103560008093090190930A01A0930B01B0930C0181
:103570000895283008F027E03327DA01990F311D2C
:1035800087FD916000966105710539F432602E5F08
:103590003D9330E32A95E1F708959F3F30F080385E
:1035A0007105610509F03C5F3C5F3D93913008F087
:1035B0008068911DDF93CF931F930F93FF92EF923B
:1035C000192F987F9695E92F96959695E90FFF27E5
:1035D000E251FF4F99273327EE24FF24A701E7018B
:1035E00005900894079428F4360FE71EF81E491F2B
:1035F000511D660F771F881F991F0694A1F705902C
:10360000079428F4E70EF81E491F561FC11D770FB7
:10361000881F991F661F0694A1F70590079428F448
:10362000F80E491F561FC71FD11D880F991F661F0F
:10363000771F0694A1F70590079420F4490F561FB1
:10364000C71FD81F990F661F771F881F0694A9F7F9
:1036500084911095177041F0D695C7955795479569
:10366000F794E7941A95C1F7E4E9F0E068941590AF
:10367000159135916591959105907FE27395E118CB
:10368000F10A430B560BC90BD009C0F7E10CF11E30
:10369000431F561FC91FD01D7EF4703311F48A9545
:1036A000E6CFE894015030F0080F0AF40027021723
:1036B00008F4202F2395022F7A3328F079E37D93A5
:1036C0002A95E9F710C07D932A9589F60694979577
:1036D0006795379517951794E118F10A430B560B28
:1036E000C90BD00998F023957E9173957A3308F031
:1036F00070E37C932013B8F77E9170617D9330F076
:10370000839571E37D9370E32A95E1F71124EF909F
:10371000FF900F911F91CF91DF91992787FD909591
:103720000895FC010590615070400110D8F7809514
:1037300090958E0F9F1F0895FC016150704001907D
:103740000110D8F7809590958E0F9F1F08950F93C5
:103750001F93CF93DF93FB01238121FD03C08FEFE4
:103760009FEF2CC022FF16C04681578124813581EE
:103770004217530744F4A081B1819D012F5F3F4F51
:10378000318320838C93268137812F5F3F4F37838E
:10379000268314C08B01EC01FB010084F185E02D30
:1037A0000995892BE1F6D80116968D919C91179772
:1037B000019617969C938E931697CE01DF91CF9129
:1037C0001F910F910895FA01AA27283051F1203155
:1037D00081F1E8946F936E7F6E5F7F4F8F4F9F4FA5
:1037E000AF4FB1E03ED0B4E03CD0670F781F891FE7
:1037F0009A1FA11D680F791F8A1F911DA11D6A0FB5
:10380000711D811D911DA11D20D009F468943F9167
:103810002AE0269F11243019305D3193DEF6CF0166
:103820000895462F4770405D4193B3E00FD0C9F72C
:10383000F6CF462F4F70405D4A3318F0495D31FD99
:103840004052419302D0A9F7EACFB4E0A6959795EC
:10385000879577956795BA95C9F7009761057105C2
:1038600008959B01AC010A2E06945795479537950C
:103870002795BA95C9F7620F731F841F951FA01D66
:103880000895F999FECF92BD81BDF89A992780B528
:103890000895262FF999FECF1FBA92BD81BD20BD94
:1038A0000FB6F894FA9AF99A0FBE01960895052E6C
:1038B00097FB1EF400940E946E1C57FD07D00E94D7
:1038C000891C07FC03D04EF40C946E1C5095409557
:1038D000309521953F4F4F4F5F4F089590958095BC
:1038E000709561957F4F8F4F9F4F08950E94F317FA
:1038F000A59F900DB49F900DA49F800D911D112444
:103900000895B7FF0C94761C0E94761C821B930BC3
:103910000895A1E21A2EAA1BBB1BFD010DC0AA1F10
:10392000BB1FEE1FFF1FA217B307E407F50720F028
:10393000A21BB30BE40BF50B661F771F881F991FA3
:103940001A9469F760957095809590959B01AC01EC
:0A395000BD01CF010895F894FFCFE8
:0E395A001201AA220A1F0A1E0A010000000024
:00000001FF
